{
    "_format": "hh-sol-artifact-1",
    "contractName": "punkNft",
    "sourceName": "contracts/Punk.sol",
    "abi": [
        {
            "inputs": [],
            "stateMutability": "payable",
            "type": "constructor"
        },
        {
            "anonymous": false,
            "inputs": [
                {
                    "indexed": true,
                    "internalType": "address",
                    "name": "owner",
                    "type": "address"
                },
                {
                    "indexed": true,
                    "internalType": "address",
                    "name": "approved",
                    "type": "address"
                },
                {
                    "indexed": true,
                    "internalType": "uint256",
                    "name": "tokenId",
                    "type": "uint256"
                }
            ],
            "name": "Approval",
            "type": "event"
        },
        {
            "anonymous": false,
            "inputs": [
                {
                    "indexed": true,
                    "internalType": "address",
                    "name": "owner",
                    "type": "address"
                },
                {
                    "indexed": true,
                    "internalType": "address",
                    "name": "operator",
                    "type": "address"
                },
                {
                    "indexed": false,
                    "internalType": "bool",
                    "name": "approved",
                    "type": "bool"
                }
            ],
            "name": "ApprovalForAll",
            "type": "event"
        },
        {
            "anonymous": false,
            "inputs": [
                {
                    "indexed": true,
                    "internalType": "address",
                    "name": "previousOwner",
                    "type": "address"
                },
                {
                    "indexed": true,
                    "internalType": "address",
                    "name": "newOwner",
                    "type": "address"
                }
            ],
            "name": "OwnershipTransferred",
            "type": "event"
        },
        {
            "anonymous": false,
            "inputs": [
                {
                    "indexed": true,
                    "internalType": "address",
                    "name": "from",
                    "type": "address"
                },
                {
                    "indexed": true,
                    "internalType": "address",
                    "name": "to",
                    "type": "address"
                },
                {
                    "indexed": true,
                    "internalType": "uint256",
                    "name": "tokenId",
                    "type": "uint256"
                }
            ],
            "name": "Transfer",
            "type": "event"
        },
        {
            "inputs": [
                {
                    "internalType": "address",
                    "name": "to",
                    "type": "address"
                },
                {
                    "internalType": "uint256",
                    "name": "tokenId",
                    "type": "uint256"
                }
            ],
            "name": "approve",
            "outputs": [],
            "stateMutability": "nonpayable",
            "type": "function"
        },
        {
            "inputs": [
                {
                    "internalType": "address",
                    "name": "owner",
                    "type": "address"
                }
            ],
            "name": "balanceOf",
            "outputs": [
                {
                    "internalType": "uint256",
                    "name": "",
                    "type": "uint256"
                }
            ],
            "stateMutability": "view",
            "type": "function"
        },
        {
            "inputs": [
                {
                    "internalType": "uint256",
                    "name": "tokenId",
                    "type": "uint256"
                }
            ],
            "name": "getApproved",
            "outputs": [
                {
                    "internalType": "address",
                    "name": "",
                    "type": "address"
                }
            ],
            "stateMutability": "view",
            "type": "function"
        },
        {
            "inputs": [
                {
                    "internalType": "address",
                    "name": "owner",
                    "type": "address"
                },
                {
                    "internalType": "address",
                    "name": "operator",
                    "type": "address"
                }
            ],
            "name": "isApprovedForAll",
            "outputs": [
                {
                    "internalType": "bool",
                    "name": "",
                    "type": "bool"
                }
            ],
            "stateMutability": "view",
            "type": "function"
        },
        {
            "inputs": [],
            "name": "isPublicMintEnabled",
            "outputs": [
                {
                    "internalType": "bool",
                    "name": "",
                    "type": "bool"
                }
            ],
            "stateMutability": "view",
            "type": "function"
        },
        {
            "inputs": [],
            "name": "maxSupply",
            "outputs": [
                {
                    "internalType": "uint256",
                    "name": "",
                    "type": "uint256"
                }
            ],
            "stateMutability": "view",
            "type": "function"
        },
        {
            "inputs": [
                {
                    "internalType": "uint256",
                    "name": "_amount",
                    "type": "uint256"
                }
            ],
            "name": "mint",
            "outputs": [],
            "stateMutability": "payable",
            "type": "function"
        },
        {
            "inputs": [],
            "name": "mintPerWallet",
            "outputs": [
                {
                    "internalType": "uint256",
                    "name": "",
                    "type": "uint256"
                }
            ],
            "stateMutability": "view",
            "type": "function"
        },
        {
            "inputs": [],
            "name": "name",
            "outputs": [
                {
                    "internalType": "string",
                    "name": "",
                    "type": "string"
                }
            ],
            "stateMutability": "view",
            "type": "function"
        },
        {
            "inputs": [],
            "name": "owner",
            "outputs": [
                {
                    "internalType": "address",
                    "name": "",
                    "type": "address"
                }
            ],
            "stateMutability": "view",
            "type": "function"
        },
        {
            "inputs": [
                {
                    "internalType": "uint256",
                    "name": "tokenId",
                    "type": "uint256"
                }
            ],
            "name": "ownerOf",
            "outputs": [
                {
                    "internalType": "address",
                    "name": "",
                    "type": "address"
                }
            ],
            "stateMutability": "view",
            "type": "function"
        },
        {
            "inputs": [],
            "name": "priceMInt",
            "outputs": [
                {
                    "internalType": "uint256",
                    "name": "",
                    "type": "uint256"
                }
            ],
            "stateMutability": "view",
            "type": "function"
        },
        {
            "inputs": [],
            "name": "renounceOwnership",
            "outputs": [],
            "stateMutability": "nonpayable",
            "type": "function"
        },
        {
            "inputs": [
                {
                    "internalType": "address",
                    "name": "from",
                    "type": "address"
                },
                {
                    "internalType": "address",
                    "name": "to",
                    "type": "address"
                },
                {
                    "internalType": "uint256",
                    "name": "tokenId",
                    "type": "uint256"
                }
            ],
            "name": "safeTransferFrom",
            "outputs": [],
            "stateMutability": "nonpayable",
            "type": "function"
        },
        {
            "inputs": [
                {
                    "internalType": "address",
                    "name": "from",
                    "type": "address"
                },
                {
                    "internalType": "address",
                    "name": "to",
                    "type": "address"
                },
                {
                    "internalType": "uint256",
                    "name": "tokenId",
                    "type": "uint256"
                },
                {
                    "internalType": "bytes",
                    "name": "data",
                    "type": "bytes"
                }
            ],
            "name": "safeTransferFrom",
            "outputs": [],
            "stateMutability": "nonpayable",
            "type": "function"
        },
        {
            "inputs": [
                {
                    "internalType": "address",
                    "name": "operator",
                    "type": "address"
                },
                {
                    "internalType": "bool",
                    "name": "approved",
                    "type": "bool"
                }
            ],
            "name": "setApprovalForAll",
            "outputs": [],
            "stateMutability": "nonpayable",
            "type": "function"
        },
        {
            "inputs": [
                {
                    "internalType": "bool",
                    "name": "_isPublicMintEnabled",
                    "type": "bool"
                }
            ],
            "name": "setIsMintEnabled",
            "outputs": [],
            "stateMutability": "nonpayable",
            "type": "function"
        },
        {
            "inputs": [
                {
                    "internalType": "string",
                    "name": "_baseTokenUri",
                    "type": "string"
                }
            ],
            "name": "setTokenUri",
            "outputs": [],
            "stateMutability": "nonpayable",
            "type": "function"
        },
        {
            "inputs": [
                {
                    "internalType": "bytes4",
                    "name": "interfaceId",
                    "type": "bytes4"
                }
            ],
            "name": "supportsInterface",
            "outputs": [
                {
                    "internalType": "bool",
                    "name": "",
                    "type": "bool"
                }
            ],
            "stateMutability": "view",
            "type": "function"
        },
        {
            "inputs": [],
            "name": "symbol",
            "outputs": [
                {
                    "internalType": "string",
                    "name": "",
                    "type": "string"
                }
            ],
            "stateMutability": "view",
            "type": "function"
        },
        {
            "inputs": [
                {
                    "internalType": "uint256",
                    "name": "_tokenID",
                    "type": "uint256"
                }
            ],
            "name": "tokenURI",
            "outputs": [
                {
                    "internalType": "string",
                    "name": "",
                    "type": "string"
                }
            ],
            "stateMutability": "view",
            "type": "function"
        },
        {
            "inputs": [],
            "name": "totalSupply",
            "outputs": [
                {
                    "internalType": "uint256",
                    "name": "",
                    "type": "uint256"
                }
            ],
            "stateMutability": "view",
            "type": "function"
        },
        {
            "inputs": [
                {
                    "internalType": "address",
                    "name": "from",
                    "type": "address"
                },
                {
                    "internalType": "address",
                    "name": "to",
                    "type": "address"
                },
                {
                    "internalType": "uint256",
                    "name": "tokenId",
                    "type": "uint256"
                }
            ],
            "name": "transferFrom",
            "outputs": [],
            "stateMutability": "nonpayable",
            "type": "function"
        },
        {
            "inputs": [
                {
                    "internalType": "address",
                    "name": "newOwner",
                    "type": "address"
                }
            ],
            "name": "transferOwnership",
            "outputs": [],
            "stateMutability": "nonpayable",
            "type": "function"
        },
        {
            "inputs": [
                {
                    "internalType": "address",
                    "name": "",
                    "type": "address"
                }
            ],
            "name": "walletMints",
            "outputs": [
                {
                    "internalType": "uint256",
                    "name": "",
                    "type": "uint256"
                }
            ],
            "stateMutability": "view",
            "type": "function"
        },
        {
            "inputs": [],
            "name": "withdraWallet",
            "outputs": [
                {
                    "internalType": "address payable",
                    "name": "",
                    "type": "address"
                }
            ],
            "stateMutability": "view",
            "type": "function"
        },
        {
            "inputs": [],
            "name": "withdraw",
            "outputs": [],
            "stateMutability": "nonpayable",
            "type": "function"
        }
    ],
    "bytecode": "0x60806040526040518060400160405280600781526020017f70756e6b4e4654000000000000000000000000000000000000000000000000008152506040518060400160405280600281526020017f5054000000000000000000000000000000000000000000000000000000000000815250816000908051906020019062000088929190620001bf565b508060019080519060200190620000a1929190620001bf565b505050620000c4620000b8620000f160201b60201c565b620000f960201b60201c565b662386f26fc1000060078190555060006008819055506101f46009819055506002600a81905550620002d4565b600033905090565b6000600660009054906101000a900473ffffffffffffffffffffffffffffffffffffffff16905081600660006101000a81548173ffffffffffffffffffffffffffffffffffffffff021916908373ffffffffffffffffffffffffffffffffffffffff1602179055508173ffffffffffffffffffffffffffffffffffffffff168173ffffffffffffffffffffffffffffffffffffffff167f8be0079c531659141344cd1fd0a4f28419497f9722a3daafe3b4186f6b6457e060405160405180910390a35050565b828054620001cd906200029e565b90600052602060002090601f016020900481019282620001f157600085556200023d565b82601f106200020c57805160ff19168380011785556200023d565b828001600101855582156200023d579182015b828111156200023c5782518255916020019190600101906200021f565b5b5090506200024c919062000250565b5090565b5b808211156200026b57600081600090555060010162000251565b5090565b7f4e487b7100000000000000000000000000000000000000000000000000000000600052602260045260246000fd5b60006002820490506001821680620002b757607f821691505b60208210811415620002ce57620002cd6200026f565b5b50919050565b61347680620002e46000396000f3fe60806040526004361061019c5760003560e01c80636352211e116100ec578063a22cb4651161008a578063d5abeb0111610064578063d5abeb0114610593578063e985e9c5146105be578063f0293fd3146105fb578063f2fde38b146106385761019c565b8063a22cb46514610504578063b88d4fde1461052d578063c87b56dd146105565761019c565b8063715018a6116100c6578063715018a61461047b5780638da5cb5b1461049257806395d89b41146104bd578063a0712d68146104e85761019c565b80636352211e146103d6578063700c35d21461041357806370a082311461043e5761019c565b806317b6a44d116101595780633ccfd60b116101335780633ccfd60b1461034257806340457d701461035957806342842e0e146103845780634de8bcfb146103ad5761019c565b806317b6a44d146102c357806318160ddd146102ee57806323b872dd146103195761019c565b80630116bc2d146101a157806301ffc9a7146101cc5780630675b7c61461020957806306fdde0314610232578063081812fc1461025d578063095ea7b31461029a575b600080fd5b3480156101ad57600080fd5b506101b6610661565b6040516101c39190611f7a565b60405180910390f35b3480156101d857600080fd5b506101f360048036038101906101ee9190612001565b610674565b6040516102009190611f7a565b60405180910390f35b34801561021557600080fd5b50610230600480360381019061022b9190612174565b610756565b005b34801561023e57600080fd5b50610247610778565b6040516102549190612245565b60405180910390f35b34801561026957600080fd5b50610284600480360381019061027f919061229d565b61080a565b604051610291919061230b565b60405180910390f35b3480156102a657600080fd5b506102c160048036038101906102bc9190612352565b610850565b005b3480156102cf57600080fd5b506102d8610968565b6040516102e591906123a1565b60405180910390f35b3480156102fa57600080fd5b5061030361096e565b60405161031091906123a1565b60405180910390f35b34801561032557600080fd5b50610340600480360381019061033b91906123bc565b610974565b005b34801561034e57600080fd5b506103576109d4565b005b34801561036557600080fd5b5061036e610aad565b60405161037b9190612430565b60405180910390f35b34801561039057600080fd5b506103ab60048036038101906103a691906123bc565b610ad3565b005b3480156103b957600080fd5b506103d460048036038101906103cf9190612477565b610af3565b005b3480156103e257600080fd5b506103fd60048036038101906103f8919061229d565b610b18565b60405161040a919061230b565b60405180910390f35b34801561041f57600080fd5b50610428610bca565b60405161043591906123a1565b60405180910390f35b34801561044a57600080fd5b50610465600480360381019061046091906124a4565b610bd0565b60405161047291906123a1565b60405180910390f35b34801561048757600080fd5b50610490610c88565b005b34801561049e57600080fd5b506104a7610c9c565b6040516104b4919061230b565b60405180910390f35b3480156104c957600080fd5b506104d2610cc6565b6040516104df9190612245565b60405180910390f35b61050260048036038101906104fd919061229d565b610d58565b005b34801561051057600080fd5b5061052b600480360381019061052691906124d1565b610f2f565b005b34801561053957600080fd5b50610554600480360381019061054f91906125b2565b610f45565b005b34801561056257600080fd5b5061057d6004803603810190610578919061229d565b610fa7565b60405161058a9190612245565b60405180910390f35b34801561059f57600080fd5b506105a8611023565b6040516105b591906123a1565b60405180910390f35b3480156105ca57600080fd5b506105e560048036038101906105e09190612635565b611029565b6040516105f29190611f7a565b60405180910390f35b34801561060757600080fd5b50610622600480360381019061061d91906124a4565b6110bd565b60405161062f91906123a1565b60405180910390f35b34801561064457600080fd5b5061065f600480360381019061065a91906124a4565b6110d5565b005b600b60009054906101000a900460ff1681565b60007f80ac58cd000000000000000000000000000000000000000000000000000000007bffffffffffffffffffffffffffffffffffffffffffffffffffffffff1916827bffffffffffffffffffffffffffffffffffffffffffffffffffffffff1916148061073f57507f5b5e139f000000000000000000000000000000000000000000000000000000007bffffffffffffffffffffffffffffffffffffffffffffffffffffffff1916827bffffffffffffffffffffffffffffffffffffffffffffffffffffffff1916145b8061074f575061074e82611159565b5b9050919050565b61075e6111c3565b80600c9080519060200190610774929190611ebc565b5050565b606060008054610787906126a4565b80601f01602080910402602001604051908101604052809291908181526020018280546107b3906126a4565b80156108005780601f106107d557610100808354040283529160200191610800565b820191906000526020600020905b8154815290600101906020018083116107e357829003601f168201915b5050505050905090565b600061081582611241565b6004600083815260200190815260200160002060009054906101000a900473ffffffffffffffffffffffffffffffffffffffff169050919050565b600061085b82610b18565b90508073ffffffffffffffffffffffffffffffffffffffff168373ffffffffffffffffffffffffffffffffffffffff1614156108cc576040517f08c379a00000000000000000000000000000000000000000000000000000000081526004016108c390612748565b60405180910390fd5b8073ffffffffffffffffffffffffffffffffffffffff166108eb61128c565b73ffffffffffffffffffffffffffffffffffffffff16148061091a57506109198161091461128c565b611029565b5b610959576040517f08c379a0000000000000000000000000000000000000000000000000000000008152600401610950906127da565b60405180910390fd5b6109638383611294565b505050565b60075481565b60085481565b61098561097f61128c565b8261134d565b6109c4576040517f08c379a00000000000000000000000000000000000000000000000000000000081526004016109bb9061286c565b60405180910390fd5b6109cf8383836113e2565b505050565b6109dc6111c3565b6000600d60009054906101000a900473ffffffffffffffffffffffffffffffffffffffff1673ffffffffffffffffffffffffffffffffffffffff1647604051610a24906128bd565b60006040518083038185875af1925050503d8060008114610a61576040519150601f19603f3d011682016040523d82523d6000602084013e610a66565b606091505b5050905080610aaa576040517f08c379a0000000000000000000000000000000000000000000000000000000008152600401610aa19061291e565b60405180910390fd5b50565b600d60009054906101000a900473ffffffffffffffffffffffffffffffffffffffff1681565b610aee83838360405180602001604052806000815250610f45565b505050565b610afb6111c3565b80600b60006101000a81548160ff02191690831515021790555050565b6000806002600084815260200190815260200160002060009054906101000a900473ffffffffffffffffffffffffffffffffffffffff169050600073ffffffffffffffffffffffffffffffffffffffff168173ffffffffffffffffffffffffffffffffffffffff161415610bc1576040517f08c379a0000000000000000000000000000000000000000000000000000000008152600401610bb89061298a565b60405180910390fd5b80915050919050565b600a5481565b60008073ffffffffffffffffffffffffffffffffffffffff168273ffffffffffffffffffffffffffffffffffffffff161415610c41576040517f08c379a0000000000000000000000000000000000000000000000000000000008152600401610c3890612a1c565b60405180910390fd5b600360008373ffffffffffffffffffffffffffffffffffffffff1673ffffffffffffffffffffffffffffffffffffffff168152602001908152602001600020549050919050565b610c906111c3565b610c9a6000611649565b565b6000600660009054906101000a900473ffffffffffffffffffffffffffffffffffffffff16905090565b606060018054610cd5906126a4565b80601f0160208091040260200160405190810160405280929190818152602001828054610d01906126a4565b8015610d4e5780601f10610d2357610100808354040283529160200191610d4e565b820191906000526020600020905b815481529060010190602001808311610d3157829003601f168201915b5050505050905090565b600b60009054906101000a900460ff16610da7576040517f08c379a0000000000000000000000000000000000000000000000000000000008152600401610d9e90612a88565b60405180910390fd5b60075481610db59190612ad7565b3414610df6576040517f08c379a0000000000000000000000000000000000000000000000000000000008152600401610ded90612b79565b60405180910390fd5b60095481600854610e079190612ad7565b1115610e48576040517f08c379a0000000000000000000000000000000000000000000000000000000008152600401610e3f90612be5565b60405180910390fd5b600a5481600e60003373ffffffffffffffffffffffffffffffffffffffff1673ffffffffffffffffffffffffffffffffffffffff16815260200190815260200160002054610e969190612ad7565b1115610ed7576040517f08c379a0000000000000000000000000000000000000000000000000000000008152600401610ece90612c51565b60405180910390fd5b60005b81811015610f2b5760006001600854610ef39190612ad7565b905060086000815480929190610f0890612c71565b9190505550610f17338261170f565b508080610f2390612c71565b915050610eda565b5050565b610f41610f3a61128c565b838361172d565b5050565b610f56610f5061128c565b8361134d565b610f95576040517f08c379a0000000000000000000000000000000000000000000000000000000008152600401610f8c9061286c565b60405180910390fd5b610fa18484848461189a565b50505050565b6060610fb2826118f6565b610ff1576040517f08c379a0000000000000000000000000000000000000000000000000000000008152600401610fe890612d06565b60405180910390fd5b600c610ffc83611962565b60405160200161100d929190612e42565b6040516020818303038152906040529050919050565b60095481565b6000600560008473ffffffffffffffffffffffffffffffffffffffff1673ffffffffffffffffffffffffffffffffffffffff16815260200190815260200160002060008373ffffffffffffffffffffffffffffffffffffffff1673ffffffffffffffffffffffffffffffffffffffff16815260200190815260200160002060009054906101000a900460ff16905092915050565b600e6020528060005260406000206000915090505481565b6110dd6111c3565b600073ffffffffffffffffffffffffffffffffffffffff168173ffffffffffffffffffffffffffffffffffffffff16141561114d576040517f08c379a000000000000000000000000000000000000000000000000000000000815260040161114490612ee3565b60405180910390fd5b61115681611649565b50565b60007f01ffc9a7000000000000000000000000000000000000000000000000000000007bffffffffffffffffffffffffffffffffffffffffffffffffffffffff1916827bffffffffffffffffffffffffffffffffffffffffffffffffffffffff1916149050919050565b6111cb61128c565b73ffffffffffffffffffffffffffffffffffffffff166111e9610c9c565b73ffffffffffffffffffffffffffffffffffffffff161461123f576040517f08c379a000000000000000000000000000000000000000000000000000000000815260040161123690612f4f565b60405180910390fd5b565b61124a816118f6565b611289576040517f08c379a00000000000000000000000000000000000000000000000000000000081526004016112809061298a565b60405180910390fd5b50565b600033905090565b816004600083815260200190815260200160002060006101000a81548173ffffffffffffffffffffffffffffffffffffffff021916908373ffffffffffffffffffffffffffffffffffffffff160217905550808273ffffffffffffffffffffffffffffffffffffffff1661130783610b18565b73ffffffffffffffffffffffffffffffffffffffff167f8c5be1e5ebec7d5bd14f71427d1e84f3dd0314c0f7b2291e5b200ac8c7c3b92560405160405180910390a45050565b60008061135983610b18565b90508073ffffffffffffffffffffffffffffffffffffffff168473ffffffffffffffffffffffffffffffffffffffff16148061139b575061139a8185611029565b5b806113d957508373ffffffffffffffffffffffffffffffffffffffff166113c18461080a565b73ffffffffffffffffffffffffffffffffffffffff16145b91505092915050565b8273ffffffffffffffffffffffffffffffffffffffff1661140282610b18565b73ffffffffffffffffffffffffffffffffffffffff1614611458576040517f08c379a000000000000000000000000000000000000000000000000000000000815260040161144f90612fe1565b60405180910390fd5b600073ffffffffffffffffffffffffffffffffffffffff168273ffffffffffffffffffffffffffffffffffffffff1614156114c8576040517f08c379a00000000000000000000000000000000000000000000000000000000081526004016114bf90613073565b60405180910390fd5b6114d3838383611ac3565b6114de600082611294565b6001600360008573ffffffffffffffffffffffffffffffffffffffff1673ffffffffffffffffffffffffffffffffffffffff168152602001908152602001600020600082825461152e9190613093565b925050819055506001600360008473ffffffffffffffffffffffffffffffffffffffff1673ffffffffffffffffffffffffffffffffffffffff16815260200190815260200160002060008282546115859190612ad7565b92505081905550816002600083815260200190815260200160002060006101000a81548173ffffffffffffffffffffffffffffffffffffffff021916908373ffffffffffffffffffffffffffffffffffffffff160217905550808273ffffffffffffffffffffffffffffffffffffffff168473ffffffffffffffffffffffffffffffffffffffff167fddf252ad1be2c89b69c2b068fc378daa952ba7f163c4a11628f55a4df523b3ef60405160405180910390a4611644838383611ac8565b505050565b6000600660009054906101000a900473ffffffffffffffffffffffffffffffffffffffff16905081600660006101000a81548173ffffffffffffffffffffffffffffffffffffffff021916908373ffffffffffffffffffffffffffffffffffffffff1602179055508173ffffffffffffffffffffffffffffffffffffffff168173ffffffffffffffffffffffffffffffffffffffff167f8be0079c531659141344cd1fd0a4f28419497f9722a3daafe3b4186f6b6457e060405160405180910390a35050565b611729828260405180602001604052806000815250611acd565b5050565b8173ffffffffffffffffffffffffffffffffffffffff168373ffffffffffffffffffffffffffffffffffffffff16141561179c576040517f08c379a000000000000000000000000000000000000000000000000000000000815260040161179390613113565b60405180910390fd5b80600560008573ffffffffffffffffffffffffffffffffffffffff1673ffffffffffffffffffffffffffffffffffffffff16815260200190815260200160002060008473ffffffffffffffffffffffffffffffffffffffff1673ffffffffffffffffffffffffffffffffffffffff16815260200190815260200160002060006101000a81548160ff0219169083151502179055508173ffffffffffffffffffffffffffffffffffffffff168373ffffffffffffffffffffffffffffffffffffffff167f17307eab39ab6107e8899845ad3d59bd9653f200f220920489ca2b5937696c318360405161188d9190611f7a565b60405180910390a3505050565b6118a58484846113e2565b6118b184848484611b28565b6118f0576040517f08c379a00000000000000000000000000000000000000000000000000000000081526004016118e7906131a5565b60405180910390fd5b50505050565b60008073ffffffffffffffffffffffffffffffffffffffff166002600084815260200190815260200160002060009054906101000a900473ffffffffffffffffffffffffffffffffffffffff1673ffffffffffffffffffffffffffffffffffffffff1614159050919050565b606060008214156119aa576040518060400160405280600181526020017f30000000000000000000000000000000000000000000000000000000000000008152509050611abe565b600082905060005b600082146119dc5780806119c590612c71565b915050600a826119d591906131f4565b91506119b2565b60008167ffffffffffffffff8111156119f8576119f7612049565b5b6040519080825280601f01601f191660200182016040528015611a2a5781602001600182028036833780820191505090505b5090505b60008514611ab757600182611a439190613093565b9150600a85611a529190613225565b6030611a5e9190612ad7565b60f81b818381518110611a7457611a73613256565b5b60200101907effffffffffffffffffffffffffffffffffffffffffffffffffffffffffffff1916908160001a905350600a85611ab091906131f4565b9450611a2e565b8093505050505b919050565b505050565b505050565b611ad78383611cbf565b611ae46000848484611b28565b611b23576040517f08c379a0000000000000000000000000000000000000000000000000000000008152600401611b1a906131a5565b60405180910390fd5b505050565b6000611b498473ffffffffffffffffffffffffffffffffffffffff16611e99565b15611cb2578373ffffffffffffffffffffffffffffffffffffffff1663150b7a02611b7261128c565b8786866040518563ffffffff1660e01b8152600401611b9494939291906132da565b602060405180830381600087803b158015611bae57600080fd5b505af1925050508015611bdf57506040513d601f19601f82011682018060405250810190611bdc919061333b565b60015b611c62573d8060008114611c0f576040519150601f19603f3d011682016040523d82523d6000602084013e611c14565b606091505b50600081511415611c5a576040517f08c379a0000000000000000000000000000000000000000000000000000000008152600401611c51906131a5565b60405180910390fd5b805181602001fd5b63150b7a0260e01b7bffffffffffffffffffffffffffffffffffffffffffffffffffffffff1916817bffffffffffffffffffffffffffffffffffffffffffffffffffffffff191614915050611cb7565b600190505b949350505050565b600073ffffffffffffffffffffffffffffffffffffffff168273ffffffffffffffffffffffffffffffffffffffff161415611d2f576040517f08c379a0000000000000000000000000000000000000000000000000000000008152600401611d26906133b4565b60405180910390fd5b611d38816118f6565b15611d78576040517f08c379a0000000000000000000000000000000000000000000000000000000008152600401611d6f90613420565b60405180910390fd5b611d8460008383611ac3565b6001600360008473ffffffffffffffffffffffffffffffffffffffff1673ffffffffffffffffffffffffffffffffffffffff1681526020019081526020016000206000828254611dd49190612ad7565b92505081905550816002600083815260200190815260200160002060006101000a81548173ffffffffffffffffffffffffffffffffffffffff021916908373ffffffffffffffffffffffffffffffffffffffff160217905550808273ffffffffffffffffffffffffffffffffffffffff16600073ffffffffffffffffffffffffffffffffffffffff167fddf252ad1be2c89b69c2b068fc378daa952ba7f163c4a11628f55a4df523b3ef60405160405180910390a4611e9560008383611ac8565b5050565b6000808273ffffffffffffffffffffffffffffffffffffffff163b119050919050565b828054611ec8906126a4565b90600052602060002090601f016020900481019282611eea5760008555611f31565b82601f10611f0357805160ff1916838001178555611f31565b82800160010185558215611f31579182015b82811115611f30578251825591602001919060010190611f15565b5b509050611f3e9190611f42565b5090565b5b80821115611f5b576000816000905550600101611f43565b5090565b60008115159050919050565b611f7481611f5f565b82525050565b6000602082019050611f8f6000830184611f6b565b92915050565b6000604051905090565b600080fd5b600080fd5b60007fffffffff0000000000000000000000000000000000000000000000000000000082169050919050565b611fde81611fa9565b8114611fe957600080fd5b50565b600081359050611ffb81611fd5565b92915050565b60006020828403121561201757612016611f9f565b5b600061202584828501611fec565b91505092915050565b600080fd5b600080fd5b6000601f19601f8301169050919050565b7f4e487b7100000000000000000000000000000000000000000000000000000000600052604160045260246000fd5b61208182612038565b810181811067ffffffffffffffff821117156120a05761209f612049565b5b80604052505050565b60006120b3611f95565b90506120bf8282612078565b919050565b600067ffffffffffffffff8211156120df576120de612049565b5b6120e882612038565b9050602081019050919050565b82818337600083830152505050565b6000612117612112846120c4565b6120a9565b90508281526020810184848401111561213357612132612033565b5b61213e8482856120f5565b509392505050565b600082601f83011261215b5761215a61202e565b5b813561216b848260208601612104565b91505092915050565b60006020828403121561218a57612189611f9f565b5b600082013567ffffffffffffffff8111156121a8576121a7611fa4565b5b6121b484828501612146565b91505092915050565b600081519050919050565b600082825260208201905092915050565b60005b838110156121f75780820151818401526020810190506121dc565b83811115612206576000848401525b50505050565b6000612217826121bd565b61222181856121c8565b93506122318185602086016121d9565b61223a81612038565b840191505092915050565b6000602082019050818103600083015261225f818461220c565b905092915050565b6000819050919050565b61227a81612267565b811461228557600080fd5b50565b60008135905061229781612271565b92915050565b6000602082840312156122b3576122b2611f9f565b5b60006122c184828501612288565b91505092915050565b600073ffffffffffffffffffffffffffffffffffffffff82169050919050565b60006122f5826122ca565b9050919050565b612305816122ea565b82525050565b600060208201905061232060008301846122fc565b92915050565b61232f816122ea565b811461233a57600080fd5b50565b60008135905061234c81612326565b92915050565b6000806040838503121561236957612368611f9f565b5b60006123778582860161233d565b925050602061238885828601612288565b9150509250929050565b61239b81612267565b82525050565b60006020820190506123b66000830184612392565b92915050565b6000806000606084860312156123d5576123d4611f9f565b5b60006123e38682870161233d565b93505060206123f48682870161233d565b925050604061240586828701612288565b9150509250925092565b600061241a826122ca565b9050919050565b61242a8161240f565b82525050565b60006020820190506124456000830184612421565b92915050565b61245481611f5f565b811461245f57600080fd5b50565b6000813590506124718161244b565b92915050565b60006020828403121561248d5761248c611f9f565b5b600061249b84828501612462565b91505092915050565b6000602082840312156124ba576124b9611f9f565b5b60006124c88482850161233d565b91505092915050565b600080604083850312156124e8576124e7611f9f565b5b60006124f68582860161233d565b925050602061250785828601612462565b9150509250929050565b600067ffffffffffffffff82111561252c5761252b612049565b5b61253582612038565b9050602081019050919050565b600061255561255084612511565b6120a9565b90508281526020810184848401111561257157612570612033565b5b61257c8482856120f5565b509392505050565b600082601f8301126125995761259861202e565b5b81356125a9848260208601612542565b91505092915050565b600080600080608085870312156125cc576125cb611f9f565b5b60006125da8782880161233d565b94505060206125eb8782880161233d565b93505060406125fc87828801612288565b925050606085013567ffffffffffffffff81111561261d5761261c611fa4565b5b61262987828801612584565b91505092959194509250565b6000806040838503121561264c5761264b611f9f565b5b600061265a8582860161233d565b925050602061266b8582860161233d565b9150509250929050565b7f4e487b7100000000000000000000000000000000000000000000000000000000600052602260045260246000fd5b600060028204905060018216806126bc57607f821691505b602082108114156126d0576126cf612675565b5b50919050565b7f4552433732313a20617070726f76616c20746f2063757272656e74206f776e6560008201527f7200000000000000000000000000000000000000000000000000000000000000602082015250565b60006127326021836121c8565b915061273d826126d6565b604082019050919050565b6000602082019050818103600083015261276181612725565b9050919050565b7f4552433732313a20617070726f76652063616c6c6572206973206e6f7420746f60008201527f6b656e206f776e6572206e6f7220617070726f76656420666f7220616c6c0000602082015250565b60006127c4603e836121c8565b91506127cf82612768565b604082019050919050565b600060208201905081810360008301526127f3816127b7565b9050919050565b7f4552433732313a2063616c6c6572206973206e6f7420746f6b656e206f776e6560008201527f72206e6f7220617070726f766564000000000000000000000000000000000000602082015250565b6000612856602e836121c8565b9150612861826127fa565b604082019050919050565b6000602082019050818103600083015261288581612849565b9050919050565b600081905092915050565b50565b60006128a760008361288c565b91506128b282612897565b600082019050919050565b60006128c88261289a565b9150819050919050565b7f7769746864726177206661696c65640000000000000000000000000000000000600082015250565b6000612908600f836121c8565b9150612913826128d2565b602082019050919050565b60006020820190508181036000830152612937816128fb565b9050919050565b7f4552433732313a20696e76616c696420746f6b656e2049440000000000000000600082015250565b60006129746018836121c8565b915061297f8261293e565b602082019050919050565b600060208201905081810360008301526129a381612967565b9050919050565b7f4552433732313a2061646472657373207a65726f206973206e6f74206120766160008201527f6c6964206f776e65720000000000000000000000000000000000000000000000602082015250565b6000612a066029836121c8565b9150612a11826129aa565b604082019050919050565b60006020820190508181036000830152612a35816129f9565b9050919050565b7f6d696e74696e67206e6f7420656e61626c656400000000000000000000000000600082015250565b6000612a726013836121c8565b9150612a7d82612a3c565b602082019050919050565b60006020820190508181036000830152612aa181612a65565b9050919050565b7f4e487b7100000000000000000000000000000000000000000000000000000000600052601160045260246000fd5b6000612ae282612267565b9150612aed83612267565b9250827fffffffffffffffffffffffffffffffffffffffffffffffffffffffffffffffff03821115612b2257612b21612aa8565b5b828201905092915050565b7f77726f6e67206d696e742076616c756500000000000000000000000000000000600082015250565b6000612b636010836121c8565b9150612b6e82612b2d565b602082019050919050565b60006020820190508181036000830152612b9281612b56565b9050919050565b7f736f6c64206f7574000000000000000000000000000000000000000000000000600082015250565b6000612bcf6008836121c8565b9150612bda82612b99565b602082019050919050565b60006020820190508181036000830152612bfe81612bc2565b9050919050565b7f657863656564206d61782077616c6c6574000000000000000000000000000000600082015250565b6000612c3b6011836121c8565b9150612c4682612c05565b602082019050919050565b60006020820190508181036000830152612c6a81612c2e565b9050919050565b6000612c7c82612267565b91507fffffffffffffffffffffffffffffffffffffffffffffffffffffffffffffffff821415612caf57612cae612aa8565b5b600182019050919050565b7f746f6b656e20646f65736e277420657869737400000000000000000000000000600082015250565b6000612cf06013836121c8565b9150612cfb82612cba565b602082019050919050565b60006020820190508181036000830152612d1f81612ce3565b9050919050565b600081905092915050565b60008190508160005260206000209050919050565b60008154612d53816126a4565b612d5d8186612d26565b94506001821660008114612d785760018114612d8957612dbc565b60ff19831686528186019350612dbc565b612d9285612d31565b60005b83811015612db457815481890152600182019150602081019050612d95565b838801955050505b50505092915050565b6000612dd0826121bd565b612dda8185612d26565b9350612dea8185602086016121d9565b80840191505092915050565b7f2e6a736f6e000000000000000000000000000000000000000000000000000000600082015250565b6000612e2c600583612d26565b9150612e3782612df6565b600582019050919050565b6000612e4e8285612d46565b9150612e5a8284612dc5565b9150612e6582612e1f565b91508190509392505050565b7f4f776e61626c653a206e6577206f776e657220697320746865207a65726f206160008201527f6464726573730000000000000000000000000000000000000000000000000000602082015250565b6000612ecd6026836121c8565b9150612ed882612e71565b604082019050919050565b60006020820190508181036000830152612efc81612ec0565b9050919050565b7f4f776e61626c653a2063616c6c6572206973206e6f7420746865206f776e6572600082015250565b6000612f396020836121c8565b9150612f4482612f03565b602082019050919050565b60006020820190508181036000830152612f6881612f2c565b9050919050565b7f4552433732313a207472616e736665722066726f6d20696e636f72726563742060008201527f6f776e6572000000000000000000000000000000000000000000000000000000602082015250565b6000612fcb6025836121c8565b9150612fd682612f6f565b604082019050919050565b60006020820190508181036000830152612ffa81612fbe565b9050919050565b7f4552433732313a207472616e7366657220746f20746865207a65726f2061646460008201527f7265737300000000000000000000000000000000000000000000000000000000602082015250565b600061305d6024836121c8565b915061306882613001565b604082019050919050565b6000602082019050818103600083015261308c81613050565b9050919050565b600061309e82612267565b91506130a983612267565b9250828210156130bc576130bb612aa8565b5b828203905092915050565b7f4552433732313a20617070726f766520746f2063616c6c657200000000000000600082015250565b60006130fd6019836121c8565b9150613108826130c7565b602082019050919050565b6000602082019050818103600083015261312c816130f0565b9050919050565b7f4552433732313a207472616e7366657220746f206e6f6e20455243373231526560008201527f63656976657220696d706c656d656e7465720000000000000000000000000000602082015250565b600061318f6032836121c8565b915061319a82613133565b604082019050919050565b600060208201905081810360008301526131be81613182565b9050919050565b7f4e487b7100000000000000000000000000000000000000000000000000000000600052601260045260246000fd5b60006131ff82612267565b915061320a83612267565b92508261321a576132196131c5565b5b828204905092915050565b600061323082612267565b915061323b83612267565b92508261324b5761324a6131c5565b5b828206905092915050565b7f4e487b7100000000000000000000000000000000000000000000000000000000600052603260045260246000fd5b600081519050919050565b600082825260208201905092915050565b60006132ac82613285565b6132b68185613290565b93506132c68185602086016121d9565b6132cf81612038565b840191505092915050565b60006080820190506132ef60008301876122fc565b6132fc60208301866122fc565b6133096040830185612392565b818103606083015261331b81846132a1565b905095945050505050565b60008151905061333581611fd5565b92915050565b60006020828403121561335157613350611f9f565b5b600061335f84828501613326565b91505092915050565b7f4552433732313a206d696e7420746f20746865207a65726f2061646472657373600082015250565b600061339e6020836121c8565b91506133a982613368565b602082019050919050565b600060208201905081810360008301526133cd81613391565b9050919050565b7f4552433732313a20746f6b656e20616c7265616479206d696e74656400000000600082015250565b600061340a601c836121c8565b9150613415826133d4565b602082019050919050565b60006020820190508181036000830152613439816133fd565b905091905056fea2646970667358221220effc99f58fb3fd0fa7e093bc1c9f5b6ce985140565262a4931c6eea0a7f67e8864736f6c63430008090033",
    "linkReferences": {},
    "deployedLinkReferences": {}
}